:10000000A3C4BDC4BCC4BBC4BAC4B9C4F1C5B7C4DD
:10001000B6C4B5C4B4C47AC5B2C4B1C4B0C4AFC464
:10002000AEC4ADC4ACC40001020304050607080950
:100030000A0B0C0D0E0F10111213141516171819A8
:100040001A1B1C1D1E1F2021222324252627282998
:100050002A2B2C2D2E2F3031323334353637383988
:100060003A3B3C3D3E3F4041424344454647484978
:100070004A4B4C4D4E4F5051525354555657585968
:100080005A5B5C5D5E5F6061626364656667686958
:100090006A6B6C6D6E6F7071727374757677787948
:1000A0007A7B7C7D7E7F8081828384858687888938
:1000B0008A8B8C8D8E8F9091929394959697989928
:1000C0009A9B9C9D9E9FA0A1A2A3A4A5A6A7A8A918
:1000D000AAABACADAEAFB0B1B2B3B4B5B6B7B8B908
:1000E000BABBBCBDBEBFC0C1C2C3C4C5C6C7C8C9F8
:1000F000CACBCCCDCECFD0D1D2D3D4D5D6D7D8D9E8
:10010000DADBDCDDDEDFE0E1E2E3E4E5E6E7E8E9D7
:10011000EAEBECEDEEEFF0F1F2F3F4F5F6F7F8F9C7
:10012000FAFBFCFDFEFF80808182838384858687C5
:100130008788898A8A8B8C8D8E8E8F9091919293ED
:1001400094959596979898999A9B9B9C9D9E9E9F17
:10015000A0A1A2A2A3A4A5A5A6A7A7A8A9AAAAAB45
:10016000ACADADAEAFB0B0B1B2B2B3B4B5B5B6B779
:10017000B7B8B9BABABBBCBCBDBEBEBFC0C0C1C2B5
:10018000C2C3C4C4C5C6C6C7C8C8C9CACACBCBCCFB
:10019000CDCDCECFCFD0D0D1D2D2D3D3D4D5D5D64A
:1001A000D6D7D7D8D9D9DADADBDBDCDCDDDDDEDEA9
:1001B000DFE0E0E1E1E2E2E3E3E4E4E4E5E5E6E612
:1001C000E7E7E8E8E9E9EAEAEAEBEBECECECEDED8D
:1001D000EEEEEEEFEFF0F0F0F1F1F1F2F2F2F3F318
:1001E000F3F4F4F4F5F5F5F6F6F6F6F7F7F7F8F8B4
:1001F000F8F8F9F9F9F9FAFAFAFAFAFBFBFBFBFB62
:10020000FCFCFCFCFCFCFDFDFDFDFDFDFDFEFEFE21
:10021000FEFEFEFEFEFEFEFEFFFFFFFFFFFFFFFFF6
:10022000FFFFFFFFFFFFFFFFFFFFFFFFFFFFFFFFDE
:10023000FFFFFFFFFFFEFEFEFEFEFEFEFEFEFEFED9
:10024000FDFDFDFDFDFDFDFCFCFCFCFCFCFBFBFBEA
:10025000FBFBFAFAFAFAFAF9F9F9F9F8F8F8F8F70B
:10026000F7F7F6F6F6F6F5F5F5F4F4F4F3F3F3F242
:10027000F2F2F1F1F1F0F0F0EFEFEEEEEEEDEDEC89
:10028000ECECEBEBEAEAEAE9E9E8E8E7E7E6E6E5E1
:10029000E5E4E4E4E3E3E2E2E1E1E0E0DFDEDEDD49
:1002A000DDDCDCDBDBDADAD9D9D8D7D7D6D6D5D5C1
:1002B000D4D3D3D2D2D1D0D0CFCFCECDCDCCCBCB47
:1002C000CACAC9C8C8C7C6C6C5C4C4C3C2C2C1C0D9
:1002D000C0BFBEBEBDBCBCBBBABAB9B8B7B7B6B575
:1002E000B5B4B3B2B2B1B0B0AFAEADADACABAAAA1B
:1002F000A9A8A7A7A6A5A5A4A3A2A2A1A09F9E9EC8
:100300009D9C9B9B9A99989897969595949392917A
:1003100091908F8E8E8D8C8B8A8A8988878786852F
:10032000848383828180807F7E7D7C7C7B7A7978E8
:1003300078777675757473727171706F6E6E6D6C9F
:100340006B6A6A6968676766656464636261616055
:100350005F5E5D5D5C5B5A5A595858575655555407
:1003600053525251504F4F4E4D4D4C4B4A4A4948B3
:100370004847464545444343424141403F3F3E3D57
:100380003D3C3B3B3A3939383737363535343433F1
:1003900032323130302F2F2E2D2D2C2C2B2A2A2982
:1003A0002928282726262525242423232222212103
:1003B000201F1F1E1E1D1D1C1C1B1B1B1A1A19197A
:1003C00018181717161615151514141313131212DF
:1003D00011111110100F0F0F0E0E0E0D0D0D0C0C34
:1003E0000C0B0B0B0A0A0A09090909080808070778
:1003F00007070606060605050505050404040404AA
:1004000003030303030302020202020202010101C9
:1004100001010101010101010000000000000000D4
:1004200000000000000000000000000000000000CC
:1004300000000000000101010101010101010101B1
:100440000202020202020203030303030304040480
:10045000040405050505050606060607070707083F
:100460000808090909090A0A0A0B0B0B0C0C0C0DE8
:100470000D0D0E0E0E0F0F0F101011111112121381
:100480001313141415151516161717181819191A09
:100490001A1B1B1B1C1C1D1D1E1E1F1F2021212281
:1004A00022232324242525262627282829292A2AE9
:1004B0002B2C2C2D2D2E2F2F303031323233343443
:1004C00035353637373839393A3B3B3C3D3D3E3F91
:1004D0003F40414142434344454546474848494AD5
:1004E0004A4B4C4D4D4E4F4F50515252535455550F
:1004F00056575858595A5A5B5C5D5D5E5F60616142
:10050000626364646566676768696A6A6B6C6D6E6E
:100510006E6F707171727374757576777878797A99
:100520007B7C7C7D7E7F2B1A86DB27E49B52FA0C3A
:100530006B3A37562027B656DC691F4658213238A9
:100540007041F2C7116F75B5F7FB6EC60D7ED0A96D
:100550000ACD9CA693D2AC49B0B86A408ADF67CA7C
:10056000986055E51FF2FD0301E90D37D9D67C2CC3
:100570006ECE862EADC2E8595F3646D39A67C30069
:10058000868BE58BDFB38E8F765D36DE84574ABD72
:10059000E02ACCE1E3BED29159C6D36810D2B22E84
:1005A0000C3A266164F430B1AA59EF6E5A1A090F59
:1005B0001013708C423EDBB1BF84E26C1C2D85DCD5
:1005C000BE13E56115ED3622C8012C8F111BAF312A
:1005D000C9EB24A460C281FC8507437CFE185374D8
:1005E00081F84B6AC8D0FDC1FE784E91CC37E4BC8F
:1005F000F13BBDDDA1EBF291240B801E2709BCF578
:10060000D9C5BBF19F2CBAB72053942D1447AD9395
:10061000C5EF82FAD105DDDC59F6388159381FD390
:1006200074CEA0F3004598CEF7D01C26234A41741F
:10063000A80F3FB921B85620EE213515D937D6037A
:10064000281B182FCBB24FABBD148CF84FE6057C9E
:1006500096A2C1D0FE882CDFAD2E943EC36626390B
:100660001D155D73F178CD5EFE9221AF31B315B1EA
:1006700010E53ED44A314AF1F8F054DD9E358A85C2
:1006800074E3857BA81A24B5295877A2C6B764E617
:10069000922661DBE743E36120D088F464F454E5FB
:1006A000DC04EF62E0830945F8FEAA6CCA90543975
:1006B00088FE4373BCBDA7F9CC94B00E600C60E813
:1006C0006AB6C0BFD7F6E10D60C51459E698ABC055
:1006D000F979CAF99BCEBD32E969495A74B848A183
:1006E00089C672A37BDF2F1A425A194578F312A2EA
:1006F000BBAA839D5901BF8B20A791B5F924696FCF
:10070000B1049EF8A5EC4F093C1B304232BC5B2B78
:1007100089412FF52DDAC27E91054A116A6A473662
:1007200081AFE8DD772AD757BE42BCAE9E2713269D
:1007300073F410A6D1FB815EBB87C791D0EA08A1F4
:10074000EB010923BF0B32F0224202AF2178273F91
:1007500037D09BE3F61FE1193E6BFA92BCFBE296A1
:100760002571FD816042F9BC261F032716826B4C60
:1007700011AEAF342FABA5FE566FEF099356860628
:1007800042E4680415FEFB5A8DB7952A3517D90443
:1007900046C7543C6A63C5C33E268B1C6568153A40
:1007A000303C7A25BA7E234198876C4C97D713C684
:1007B0008FFDD9B6A182D1AA2A1D2F1437C8256F63
:1007C00037F36AEE56AC6B8073F020A438E8785C9F
:1007D000F01CC301F23E9565B01C350627E4F0FB22
:1007E000365B4F74A074AD22F949BB4CCFABCE5CE5
:1007F00055EEC689CDB12B914A7977461A1691BF2D
:1008000035C45B2FF3784BED7AB3B09549D95515C4
:10081000A412473291741FE58BC273C344BBE2B983
:10082000C6B63E4CEAF413E0AA897F387F772D07DD
:10083000CC93584B39AABDB855713612097E0E2E8D
:10084000EBB1A998221965986A7BA46A2B6F144EA4
:1008500020E71D4361DE86A12C3EC51418356A745D
:10086000C94632910A556EFE1AEC207B1DAA30173C
:100870009DEB95C68A220BADB8F0E2A1D8BD47C466
:10088000DAFE93BB783AE4224C2A60F1D91B8E7EC3
:100890001AC87245ACA26828ADB5658F2C456E0CA0
:1008A000922F192098CFAA853B6B123834D6442555
:1008B0002352B552168566D53918B61A3D0D206BF0
:1008C00095AF8811EEE6ABD59544887493D7A8957B
:1008D0003FBECFAF595E573FBEB13A7731B08114BA
:1008E000014494F3FF3EA03A391290F4C0F02BE695
:1008F000E7E3426FA7BA31CAA2A16B5956CB0BA846
:100900007D939008B81592EE72268D631D0FA29A02
:10091000FB043F2119E4719AA2BBFB1902BD0D59DA
:1009200036CDE6F7F01880CAFAFFD2BE52200C048A
:1009300000010308163A4553789BB5D2E7F5FAFF54
:10094000F1DDC8B79B8A00FF11241FBECFE5D4E0BC
:10095000DEBFCDBF10E0A0E6B0E0E0ECFDE002C0FD
:1009600005900D92AC36B107D9F710E0ACE6B0E0D7
:1009700001C01D92A139B107E1F7AAD11FC240CB36
:10098000EF92FF920F931F93CF93DF93DC0160915F
:100990006E0070916F006F5F7F4F70936F00609378
:1009A0006E006230710519F42FEF33E094C06430AB
:1009B000710509F48EC0C0916000D0916100C61726
:1009C000D7071CF024EF31E086C00091620010913F
:1009D0006300E0917000F0917100E00FF11F9F0142
:1009E00093E0220F331F9A95E1F72C0F3D1F6217FA
:1009F00073070CF05AC040916C0050916D007A0161
:100A00000894E11CF11CE09EC001E19E900DF09E57
:100A1000900D1124E49F9001E59F300DF49F300D5F
:100A20001124820F931F8C0F9D1F68177907ACF458
:100A300087E090E0841B950B02C0B595A7958A9539
:100A4000E2F7A170B0708FEF93E0A89F9001A99F8B
:100A5000300DB89F300D112415C0440F551F4F5F46
:100A60005F4F4E9FC0014F9F900D5E9F900D1124D0
:100A70008C0F9D1F681779071CF420E931E002C034
:100A800020E030E0EE9EC001EF9E900DFE9E900DA6
:100A900011248C0F9D1F68177907E9F4F0926D00FF
:100AA000E0926C0020E931E016C0809164009091E2
:100AB0006500280F391F621773073CF410926D0010
:100AC00010926C0028E532E006C010926F00109280
:100AD0006E0020E030E0C901DF91CF911F910F91AE
:100AE000FF90EF9008958CEF81BB8FE087BB14BA25
:100AF00008958AE691E09BBD8ABD1FBC89E08EBD4A
:100B000080E189BF089585E886B908951F920F9204
:100B10000FB60F9211248F939F93EF93FF938CB195
:100B200080939000809179008F5F80937900679B1C
:100B300003C01092790006C08EE190E090936A00A5
:100B400080936900E0917900F0E080919000E65890
:100B5000FF4F8083FF91EF919F918F910F900FBE78
:100B60000F901F9018958FE180BD19B880E98AB960
:100B700086E880BD089591FF02C0929A01C09298C4
:100B800022B390FF02C0939A01C0939822B387FFCB
:100B900002C0949A01C0949822B386FF02C0959A2D
:100BA00001C0959822B385FF02C0969A01C096981D
:100BB00022B384FF02C0979A01C0979822B383FFA3
:100BC00002C0C09A01C0C09828B382FF02C0C19A77
:100BD00001C0C19828B381FF02C0C29A01C0C29867
:100BE00028B380FF02C0C39A01C0C39888B3089598
:100BF0001F920F920FB60F9211242F933F934F9392
:100C00005F936F937F938F939F93AF93BF93EF9374
:100C1000FF9380917D0090917E00ADDF80917D00FB
:100C200090917E009093800080937F0010927E00D0
:100C300010927D00809176008F5F809376002091E6
:100C40008E0030918F008091690090916A00820F30
:100C5000931F90938F0080938E0080918E009091CF
:100C60008F008F5F934050F080918E0090918F00A5
:100C70008F5F934090938F0080938E0080917D00D2
:100C800090917E00E0918E00F0918F00EA5DFE4F22
:100C9000E4918E0F911D90937E0080937D00809152
:100CA0007A0090E06DDE90937E0080937D00FF914E
:100CB000EF91BF91AF919F918F917F916F915F91D4
:100CC0004F913F912F910F900FBE0F901F9018954D
:100CD000F8948CEF81BB8FE087BB14BA8FE180BDA5
:100CE00019B880E98AB986E880BD8AE691E09BBDA3
:100CF0008ABD1FBC89E08EBD80E189BF85E886B9C9
:100D0000789485E087B9E3E075E064E051E042E083
:100D100024E130E0369941C087B18230F1F0833070
:100D200028F4882351F08130B9F50FC0843029F1BF
:100D30008430D8F0853081F528C084B195B1909386
:100D400082008093810057B927C084B195B19093F8
:100D500084008093830047B91FC084B195B19093FC
:100D6000860080938500E7B917C084B195B1909350
:100D700088008093870067B90FC084B195B19093C4
:100D80008A008093890077B907C084B195B19093A8
:100D90008C0080938B0017B8369A8091790082304E
:100DA00008F4B8CF80917A0082958F70893009F06D
:100DB000B1CF30936A0020936900ACCFF894FFCF95
:0C0DC0000500050014000A0F14020000DA
:00000001FF
