:10000000A3C4BDC4BCC4BBC4BAC4B9C428C5B7C4A6
:10001000B6C4B5C4B4C4C7C4B2C4B1C4B0C4AFC418
:10002000AEC4ADC4ACC40001020304050607080950
:100030000A0B0C0D0E0F10111213141516171819A8
:100040001A1B1C1D1E1F2021222324252627282998
:100050002A2B2C2D2E2F3031323334353637383988
:100060003A3B3C3D3E3F4041424344454647484978
:100070004A4B4C4D4E4F5051525354555657585968
:100080005A5B5C5D5E5F6061626364656667686958
:100090006A6B6C6D6E6F7071727374757677787948
:1000A0007A7B7C7D7E7F8081828384858687888938
:1000B0008A8B8C8D8E8F9091929394959697989928
:1000C0009A9B9C9D9E9FA0A1A2A3A4A5A6A7A8A918
:1000D000AAABACADAEAFB0B1B2B3B4B5B6B7B8B908
:1000E000BABBBCBDBEBFC0C1C2C3C4C5C6C7C8C9F8
:1000F000CACBCCCDCECFD0D1D2D3D4D5D6D7D8D9E8
:10010000DADBDCDDDEDFE0E1E2E3E4E5E6E7E8E9D7
:10011000EAEBECEDEEEFF0F1F2F3F4F5F6F7F8F9C7
:10012000FAFBFCFDFEFF80808182838384858687C5
:100130008788898A8A8B8C8D8E8E8F9091919293ED
:1001400094959596979898999A9B9B9C9D9E9E9F17
:10015000A0A1A2A2A3A4A5A5A6A7A7A8A9AAAAAB45
:10016000ACADADAEAFB0B0B1B2B2B3B4B5B5B6B779
:10017000B7B8B9BABABBBCBCBDBEBEBFC0C0C1C2B5
:10018000C2C3C4C4C5C6C6C7C8C8C9CACACBCBCCFB
:10019000CDCDCECFCFD0D0D1D2D2D3D3D4D5D5D64A
:1001A000D6D7D7D8D9D9DADADBDBDCDCDDDDDEDEA9
:1001B000DFE0E0E1E1E2E2E3E3E4E4E4E5E5E6E612
:1001C000E7E7E8E8E9E9EAEAEAEBEBECECECEDED8D
:1001D000EEEEEEEFEFF0F0F0F1F1F1F2F2F2F3F318
:1001E000F3F4F4F4F5F5F5F6F6F6F6F7F7F7F8F8B4
:1001F000F8F8F9F9F9F9FAFAFAFAFAFBFBFBFBFB62
:10020000FCFCFCFCFCFCFDFDFDFDFDFDFDFEFEFE21
:10021000FEFEFEFEFEFEFEFEFFFFFFFFFFFFFFFFF6
:10022000FFFFFFFFFFFFFFFFFFFFFFFFFFFFFFFFDE
:10023000FFFFFFFFFFFEFEFEFEFEFEFEFEFEFEFED9
:10024000FDFDFDFDFDFDFDFCFCFCFCFCFCFBFBFBEA
:10025000FBFBFAFAFAFAFAF9F9F9F9F8F8F8F8F70B
:10026000F7F7F6F6F6F6F5F5F5F4F4F4F3F3F3F242
:10027000F2F2F1F1F1F0F0F0EFEFEEEEEEEDEDEC89
:10028000ECECEBEBEAEAEAE9E9E8E8E7E7E6E6E5E1
:10029000E5E4E4E4E3E3E2E2E1E1E0E0DFDEDEDD49
:1002A000DDDCDCDBDBDADAD9D9D8D7D7D6D6D5D5C1
:1002B000D4D3D3D2D2D1D0D0CFCFCECDCDCCCBCB47
:1002C000CACAC9C8C8C7C6C6C5C4C4C3C2C2C1C0D9
:1002D000C0BFBEBEBDBCBCBBBABAB9B8B7B7B6B575
:1002E000B5B4B3B2B2B1B0B0AFAEADADACABAAAA1B
:1002F000A9A8A7A7A6A5A5A4A3A2A2A1A09F9E9EC8
:100300009D9C9B9B9A99989897969595949392917A
:1003100091908F8E8E8D8C8B8A8A8988878786852F
:10032000848383828180807F7E7D7C7C7B7A7978E8
:1003300078777675757473727171706F6E6E6D6C9F
:100340006B6A6A6968676766656464636261616055
:100350005F5E5D5D5C5B5A5A595858575655555407
:1003600053525251504F4F4E4D4D4C4B4A4A4948B3
:100370004847464545444343424141403F3F3E3D57
:100380003D3C3B3B3A3939383737363535343433F1
:1003900032323130302F2F2E2D2D2C2C2B2A2A2982
:1003A0002928282726262525242423232222212103
:1003B000201F1F1E1E1D1D1C1C1B1B1B1A1A19197A
:1003C00018181717161615151514141313131212DF
:1003D00011111110100F0F0F0E0E0E0D0D0D0C0C34
:1003E0000C0B0B0B0A0A0A09090909080808070778
:1003F00007070606060605050505050404040404AA
:1004000003030303030302020202020202010101C9
:1004100001010101010101010000000000000000D4
:1004200000000000000000000000000000000000CC
:1004300000000000000101010101010101010101B1
:100440000202020202020203030303030304040480
:10045000040405050505050606060607070707083F
:100460000808090909090A0A0A0B0B0B0C0C0C0DE8
:100470000D0D0E0E0E0F0F0F101011111112121381
:100480001313141415151516161717181819191A09
:100490001A1B1B1B1C1C1D1D1E1E1F1F2021212281
:1004A00022232324242525262627282829292A2AE9
:1004B0002B2C2C2D2D2E2F2F303031323233343443
:1004C00035353637373839393A3B3B3C3D3D3E3F91
:1004D0003F40414142434344454546474848494AD5
:1004E0004A4B4C4D4D4E4F4F50515252535455550F
:1004F00056575858595A5A5B5C5D5D5E5F60616142
:10050000626364646566676768696A6A6B6C6D6E6E
:100510006E6F707171727374757576777878797A99
:100520007B7C7C7D7E7F2B1A86DB27E49B52FA0C3A
:100530006B3A37562027B656DC691F4658213238A9
:100540007041F2C7116F75B5F7FB6EC60D7ED0A96D
:100550000ACD9CA693D2AC49B0B86A408ADF67CA7C
:10056000986055E51FF2FD0301E90D37D9D67C2CC3
:100570006ECE862EADC2E8595F3646D39A67C30069
:10058000868BE58BDFB38E8F765D36DE84574ABD72
:10059000E02ACCE1E3BED29159C6D36810D2B22E84
:1005A0000C3A266164F430B1AA59EF6E5A1A090F59
:1005B0001013708C423EDBB1BF84E26C1C2D85DCD5
:1005C000BE13E56115ED3622C8012C8F111BAF312A
:1005D000C9EB24A460C281FC8507437CFE185374D8
:1005E00081F84B6AC8D0FDC1FE784E91CC37E4BC8F
:1005F000F13BBDDDA1EBF291240B801E2709BCF578
:10060000D9C5BBF19F2CBAB72053942D1447AD9395
:10061000C5EF82FAD105DDDC59F6388159381FD390
:1006200074CEA0F3004598CEF7D01C26234A41741F
:10063000A80F3FB921B85620EE213515D937D6037A
:10064000281B182FCBB24FABBD148CF84FE6057C9E
:1006500096A2C1D0FE882CDFAD2E943EC36626390B
:100660001D155D73F178CD5EFE9221AF31B315B1EA
:1006700010E53ED44A314AF1F8F054DD9E358A85C2
:1006800074E3857BA81A24B5295877A2C6B764E617
:10069000922661DBE743E36120D088F464F454E5FB
:1006A000DC04EF62E0830945F8FEAA6CCA90543975
:1006B00088FE4373BCBDA7F9CC94B00E600C60E813
:1006C0006AB6C0BFD7F6E10D60C51459E698ABC055
:1006D000F979CAF99BCEBD32E969495A74B848A183
:1006E00089C672A37BDF2F1A425A194578F312A2EA
:1006F000BBAA839D5901BF8B20A791B5F924696FCF
:10070000B1049EF8A5EC4F093C1B304232BC5B2B78
:1007100089412FF52DDAC27E91054A116A6A473662
:1007200081AFE8DD772AD757BE42BCAE9E2713269D
:1007300073F410A6D1FB815EBB87C791D0EA08A1F4
:10074000EB010923BF0B32F0224202AF2178273F91
:1007500037D09BE3F61FE1193E6BFA92BCFBE296A1
:100760002571FD816042F9BC261F032716826B4C60
:1007700011AEAF342FABA5FE566FEF099356860628
:1007800042E4680415FEFB5A8DB7952A3517D90443
:1007900046C7543C6A63C5C33E268B1C6568153A40
:1007A000303C7A25BA7E234198876C4C97D713C684
:1007B0008FFDD9B6A182D1AA2A1D2F1437C8256F63
:1007C00037F36AEE56AC6B8073F020A438E8785C9F
:1007D000F01CC301F23E9565B01C350627E4F0FB22
:1007E000365B4F74A074AD22F949BB4CCFABCE5CE5
:1007F00055EEC689CDB12B914A7977461A1691BF2D
:1008000035C45B2FF3784BED7AB3B09549D95515C4
:10081000A412473291741FE58BC273C344BBE2B983
:10082000C6B63E4CEAF413E0AA897F387F772D07DD
:10083000CC93584B39AABDB855713612097E0E2E8D
:10084000EBB1A998221965986A7BA46A2B6F144EA4
:1008500020E71D4361DE86A12C3EC51418356A745D
:10086000C94632910A556EFE1AEC207B1DAA30173C
:100870009DEB95C68A220BADB8F0E2A1D8BD47C466
:10088000DAFE93BB783AE4224C2A60F1D91B8E7EC3
:100890001AC87245ACA26828ADB5658F2C456E0CA0
:1008A000922F192098CFAA853B6B123834D6442555
:1008B0002352B552168566D53918B61A3D0D206BF0
:1008C00095AF8811EEE6ABD59544887493D7A8957B
:1008D0003FBECFAF595E573FBEB13A7731B08114BA
:1008E000014494F3FF3EA03A391290F4C0F02BE695
:1008F000E7E3426FA7BA31CAA2A16B5956CB0BA846
:100900007D939008B81592EE72268D631D0FA29A02
:10091000FB043F2119E4719AA2BBFB1902BD0D59DA
:1009200036CDE6F7F01880CAFAFFD2BE52200C048A
:1009300000010308163A4553789BB5D2E7F5FAFF54
:10094000F1DDC8B79B8A00FF11241FBECFE5D4E0BC
:10095000DEBFCDBF11E0A0E6B0E0ECE2F7E102C0FF
:1009600005900D92AA36B107D9F711E0AAE6B1E0D9
:1009700001C01D92AB39B107E1F779D1D5C640CBA3
:100980008EEF81BB8FE087BB14BA08958AE691E0B1
:100990009BBD8ABD1FBC89E08EBD80E189BF0895E3
:1009A00085E886B908951F920F920FB60F92112411
:1009B0008F939F9380916000909161000196909336
:1009C0006100809360009F918F910F900FBE0F90F8
:1009D0001F90189510BC8FE189B980E98AB986E823
:1009E00080BD089580FF02C0929A01C0929822B300
:1009F00081FF02C0939A01C0939822B382FF02C084
:100A0000949A01C0949822B383FF02C0959A01C0C2
:100A1000959822B384FF02C0969A01C0969822B39B
:100A200085FF02C0979A01C0979822B386FF02C043
:100A3000C09A01C0C09828B387FF02C0C19A01C004
:100A4000C19828B390FF02C0C29A01C0C29828B3CF
:100A500091FF02C0C39A01C0C39888B308951F9242
:100A60000F920FB60F921124EF92FF920F931F93E4
:100A70002F933F934F935F936F937F938F939F93A6
:100A8000AF93BF93EF93FF9380916E0190916F01AD
:100A9000A9DF80916A0190916B01019690936B019F
:100AA00080936A01369942C087B18230F9F0833071
:100AB00028F4882351F08130C1F50FC0843031F122
:100AC0008430E0F0853089F529C084B195B19093E8
:100AD00071018093700181E007C084B195B190935A
:100AE00073018093720182E087B91FC084B195B110
:100AF000909375018093740183E0F6CF84B195B132
:100B0000909377018093760184E0EECF84B195B124
:100B1000909379018093780185E0E6CF84B195B117
:100B200090937B0180937A0117B8369A20916A01DD
:100B300030916B0180916000909161008217930762
:100B4000ACF480916E0190916F01892B19F080E0D7
:100B500090E004C0809176019091770190936F01AD
:100B600080936E0110926B0110926A016091700186
:100B700070917101882777FD8095982F4FD320E0E1
:100B800030E040E85AE32AD220E030E048EC52E47A
:100B900025D260937C0170937D0180937E019093B8
:100BA0007F0160918001709181018091820190911B
:100BB000830120917C0130917D0140917E01509113
:100BC0007F01E5D120E030EC4FE754E4FCD2181669
:100BD000C4F42091800130918101409182015091B3
:100BE0008301E0907C01F0907D0100917E011091E5
:100BF0007F0160E070EC8FE794E49ED1A80197013B
:100C000010C060918001709181018091820190916A
:100C1000830120917C0130917D0140917E015091B2
:100C20007F01B5D16093800170938101809382012F
:100C300090938301FF91EF91BF91AF919F918F911D
:100C40007F916F915F914F913F912F911F910F91E4
:100C5000FF90EF900F900FBE0F901F901895FC0122
:100C6000E40FF11DEA5DFE4FE4918E2F08958EEFA3
:100C700081BB8FE087BB14BA10BC8FE189B980E9D2
:100C80008AB986E880BD8AE691E09BBD8ABD1FBC1B
:100C900089E08EBD80E189BF85E886B9789485E0DA
:100CA00087B9FFCFA0E0B0E0E7E5F6E006C5DC01DC
:100CB0002B01FA019C91923008F439C1EB01888133
:100CC000823008F433C1943069F4843009F02FC1C4
:100CD00011969C9111978981981709F428C1A2E671
:100CE000B0E025C1843009F421C18230A9F49230EA
:100CF00009F01DC19A01AD0188E0EA010990AE0139
:100D0000E90109929E018150C1F7E20189811196A2
:100D10009C918923818308C1923009F407C11296FE
:100D20002D903C901397EB018A819B811496AD9096
:100D3000BD90CD90DC901797EC80FD800E811F81D7
:100D40009101281B390BB90137FF04C066277727AB
:100D5000621B730B603271050CF061C01216130632
:100D60006CF537014801062E04C096948794779459
:100D700067940A94D2F721E030E040E050E004C0EC
:100D8000220F331F441F551F6A95D2F72150304060
:100D9000404050402E213F21402351232115310551
:100DA0004105510521F021E030E040E050E07901BB
:100DB0008A01E628F728082919293CC0232BD1F1FC
:100DC000260E371E35014601062E04C096948794E0
:100DD000779467940A94D2F721E030E040E050E045
:100DE00004C0220F331F441F551F6A95D2F72150AC
:100DF0003040404050402A213B214C215D212115AB
:100E000031054105510521F021E030E040E050E09E
:100E100059016A01A628B728C828D9280BC082150D
:100E200093052CF01C01AA24BB24650103C0EE2409
:100E3000FF24870111969C91D20111968C919817ED
:100E400009F445C0992339F0A80197012A193B09F3
:100E50004C095D0906C0A60195012E193F09400BFA
:100E6000510B57FD08C011823382228224833583BF
:100E7000468357831DC081E0818333822282882785
:100E80009927DC01821B930BA40BB50B84839583FC
:100E9000A683B7830DC0220F331F441F551F248321
:100EA000358346835783828193810197938382831D
:100EB0002481358146815781DA01C9010197A10951
:100EC000B1098F5F9F4FAF4FBF4328F30BC0918392
:100ED00033822282EA0CFB1C0C1D1D1DE482F5826C
:100EE0000683178383E0808324813581468157817F
:100EF00057FF1AC0C901AA2797FDA095BA2F817084
:100F00009070A070B0705695479537952795822BB5
:100F1000932BA42BB52B84839583A683B7838281DF
:100F20009381019693838283DF0101C0D201CD01B9
:100F3000CDB7DEB7E2E1DDC3A0E2B0E0E1EAF7E081
:100F4000C8C369837A838B839C832D833E834F83BD
:100F50005887E9E0EE2EF12CEC0EFD1ECE01019635
:100F6000B701DAD28E010F5E1F4FCE010596B80190
:100F7000D3D28A8991E089278A8BC701B801AE0153
:100F8000475E5F4F8FDEF3D1A096E6E0BEC3A0E2DE
:100F9000B0E0ECECF7E09DC369837A838B839C839C
:100FA0002D833E834F835887F9E0EF2EF12CEC0E12
:100FB000FD1ECE010196B701AFD28E010F5E1F4F0D
:100FC000CE010596B801A8D2C701B801AE01475EAF
:100FD0005F4F68DECCD1A096E6E097C3A0E2B0E018
:100FE000E3EFF7E06AC369837A838B839C832D8365
:100FF0003E834F835887CE010196BE01675F7F4FC6
:101000008BD2CE010596BE016F5E7F4F85D299854A
:10101000923088F089898230C8F0943019F4823097
:1010200051F404C0843029F4923081F482E690E0D7
:10103000C6C0923049F420E09A858A89981321E04D
:101040002A87CE010996BBC0823049F420E09A85F8
:101050008A89981321E02A8BCE014196B0C02D8455
:101060003E844F8458886D887E888F88988CEE24C3
:10107000FF248701AA24BB24650140E050E060E022
:1010800070E0E0E0F0E0C10181709070892BE9F040
:10109000E60CF71C081D191D9A01AB012A0D3B1D1A
:1010A0004C1D5D1D80E090E0A0E0B0E0E614F70488
:1010B0000805190520F481E090E0A0E0B0E0BA0155
:1010C000A901480F591F6A1F7B1FAA0CBB1CCC1C0F
:1010D000DD1C97FE08C081E090E0A0E0B0E0A82A07
:1010E000B92ACA2ADB2A3196E032F10549F0660CAA
:1010F000771C881C991C5694479437942794C3CF27
:10110000FA85EA892B893C898B859C85280F391FB4
:101110002E5F3F4F17C0CA0181709070892B61F01C
:1011200016950795F794E79480E090E0A0E0B0E88A
:10113000E82AF92A0A2B1B2B769567955795479530
:101140002F5F3F4F77FDE7CF0CC0440F551F661F41
:10115000771F17FD4160EE0CFF1C001F111F21506F
:101160003040403090E0590790E0690790E47907FB
:1011700060F32B8F3C8FDB01CA018F779070A070DA
:10118000B07080349105A105B10561F447FD0AC036
:10119000E114F1040105110529F0405C5F4F6F4F28
:1011A0007F4F40781A8EFE1711F081E08A8F4D8FA5
:1011B0005E8F6F8F78A383E0898FCE014996D7D059
:1011C000A096E2E196C2A8E1B0E0E8EEF8E081C2C4
:1011D00069837A838B839C832D833E834F835887D7
:1011E00089E0E82EF12CEC0EFD1ECE010196B70130
:1011F00093D18E010F5E1F4FCE010596B8018CD1A1
:101200008985823038F08989823020F0C701B801A1
:10121000FBD101C08FEF6896E6E077C2A8E0B0E0AE
:10122000E3E1F9E053C29B01AC0183E08983DA0179
:10123000C9018827B7FD83959927AA27BB27B82E10
:10124000211531054105510519F482E0898339C022
:101250008823A9F0203080E0380780E0480780E844
:10126000580729F460E070E080E09FEC2EC0EE2487
:10127000FF248701E21AF30A040B150B02C079015F
:101280008A018EE1C82ED12CDC82CB82ED82FE82D7
:101290000F831887C801B7011BD0019718161906CC
:1012A00084F4082E04C0EE0CFF1C001F111F0A94CA
:1012B000D2F7ED82FE820F831887C81AD90ADC8222
:1012C000CB82BA82CE01019652D02896E9E01AC2AA
:1012D000EF92FF920F931F937B018C0180E0E81641
:1012E00080E0F80681E0080780E0180788F48FEFB7
:1012F000E816F1040105110531F028F088E090E0CE
:10130000A0E0B0E017C080E090E0A0E0B0E012C044
:1013100080E0E81680E0F80680E0080781E0180722
:1013200028F088E190E0A0E0B0E004C080E190E027
:10133000A0E0B0E020E230E040E050E0281B390BB4
:101340004A0B5B0B04C016950795F794E7948A95B2
:10135000D2F7F701E659FF4F8081281B3109410977
:101360005109C9011F910F91FF90EF900895DF92ED
:10137000EF92FF920F931F93FC01E480F5800681AA
:101380001781D1808081823048F480E090E0A0E134
:10139000B0E0E82AF92A0A2B1B2BA5C0843009F4F7
:1013A0009FC0823021F4EE24FF24870105C0E114A0
:1013B000F1040105110519F4E0E0F0E096C0628146
:1013C00073819FEF623879070CF05BC022E83FEF32
:1013D000261B370B2A3131052CF020E030E040E0AD
:1013E00050E02AC0B801A701022E04C07695679587
:1013F000579547950A94D2F781E090E0A0E0B0E0DD
:1014000004C0880F991FAA1FBB1F2A95D2F7019706
:10141000A109B1098E219F21A023B1230097A10525
:10142000B10521F081E090E0A0E0B0E09A01AB01CD
:10143000282B392B4A2B5B2BDA01C9018F7790704F
:10144000A070B07080349105A105B10539F427FF73
:1014500009C0205C3F4F4F4F5F4F04C0215C3F4F9E
:101460004F4F5F4FE0E0F0E02030A0E03A07A0E00F
:101470004A07A0E45A0710F0E1E0F0E079018A01A0
:1014800027C06038710564F5FB01E158FF4FD801B2
:10149000C7018F779070A070B07080349105A1055E
:1014A000B10539F4E7FE0DC080E490E0A0E0B0E0C3
:1014B00004C08FE390E0A0E0B0E0E80EF91E0A1F40
:1014C0001B1F17FF05C016950795F794E7943196F3
:1014D00087E016950795F794E7948A95D1F705C0AC
:1014E000EE24FF248701EFEFF0E06E2F679566276B
:1014F0006795902F9F77D794DD24D7948E2F86956C
:10150000492F462B582F5D29B701CA011F910F9112
:10151000FF90EF90DF900895FC01DB014081518145
:101520002281622F6F7770E0221F2227221F938172
:10153000892F880F822B282F30E0991F9927991F18
:1015400011969C93119721153105A9F54115510567
:101550006105710511F482E037C082E89FEF1396B0
:101560009C938E9312979A01AB0167E0220F331F71
:10157000441F551F6A95D1F783E08C930DC0220F4D
:10158000331F441F551F12968D919C9113970197FD
:1015900013969C938E931297203080E0380780E05A
:1015A000480780E4580758F314962D933D934D93C4
:1015B0005C93179708952F3F310579F44115510534
:1015C0006105710519F484E08C93089564FF03C0EC
:1015D00081E08C9312C01C9210C02F57304013969C
:1015E0003C932E93129783E08C9387E0440F551F12
:1015F000661F771F8A95D1F7706414964D935D939B
:101600006D937C93179708951F93DC01FB019C91C8
:10161000923008F447C08081823008F443C094308F
:1016200051F411961C91843099F58181682F70E0F6
:10163000611B71093FC0843021F0923031F4823057
:10164000B9F18181882389F12DC011961C911197E0
:101650008230F1F081811817D9F412962D913C91C6
:101660001397828193818217930794F02817390783
:10167000BCF014968D919D910D90BC91A02D24816C
:10168000358146815781281739074A075B0718F4C7
:10169000112341F00AC082179307A407B50740F44D
:1016A000112319F061E070E005C06FEF7FEF02C019
:1016B00060E070E0CB011F9108952F923F924F920E
:1016C0005F926F927F928F929F92AF92BF92CF92D2
:1016D000DF92EF92FF920F931F93CF93DF93CDB7DB
:1016E000DEB7CA1BDB0B0FB6F894DEBF0FBECDBF53
:1016F00009942A88398848885F846E847D848C8424
:101700009B84AA84B984C884DF80EE80FD800C812C
:101710001B81AA81B981CE0FD11D0FB6F894DEBF0F
:0C1720000FBECDBFED010895F894FFCF7F
:10172C002C01000000000000000000010202030375
:10173C000303040404040404040405050505050559
:10174C000505050505050505050506060606060637
:10175C00060606060606060606060606060606061D
:10176C000606060606060606060607070707070707
:10177C0007070707070707070707070707070707ED
:10178C0007070707070707070707070707070707DD
:10179C0007070707070707070707070707070707CD
:1017AC0007070707070707070707080808080808B7
:1017BC00080808080808080808080808080808089D
:1017CC00080808080808080808080808080808088D
:1017DC00080808080808080808080808080808087D
:1017EC00080808080808080808080808080808086D
:1017FC00080808080808080808080808080808085D
:10180C00080808080808080808080808080808084C
:10181C00080808080808080808080808080808083C
:0A182C000808080808080808080862
:00000001FF
